{
  "contractName": "JsonArray",
  "abi": [
    {
      "inputs": [
        {
          "internalType": "uint256",
          "name": "",
          "type": "uint256"
        }
      ],
      "name": "jsonDataArray",
      "outputs": [
        {
          "internalType": "string",
          "name": "",
          "type": "string"
        }
      ],
      "stateMutability": "view",
      "type": "function",
      "constant": true
    },
    {
      "inputs": [
        {
          "internalType": "string",
          "name": "_jsonData",
          "type": "string"
        }
      ],
      "name": "storeData",
      "outputs": [],
      "stateMutability": "nonpayable",
      "type": "function"
    },
    {
      "inputs": [],
      "name": "getAllData",
      "outputs": [
        {
          "internalType": "string[]",
          "name": "",
          "type": "string[]"
        }
      ],
      "stateMutability": "view",
      "type": "function",
      "constant": true
    },
    {
      "inputs": [
        {
          "internalType": "uint256",
          "name": "index",
          "type": "uint256"
        }
      ],
      "name": "getData",
      "outputs": [
        {
          "internalType": "string",
          "name": "",
          "type": "string"
        }
      ],
      "stateMutability": "view",
      "type": "function",
      "constant": true
    },
    {
      "inputs": [],
      "name": "getArrayLength",
      "outputs": [
        {
          "internalType": "uint256",
          "name": "",
          "type": "uint256"
        }
      ],
      "stateMutability": "view",
      "type": "function",
      "constant": true
    }
  ],
  "bytecode": "0x608060405234801561001057600080fd5b50610acf806100206000396000f3fe608060405234801561001057600080fd5b50600436106100575760003560e01c80630178fe3f1461005c5780630849cc991461008c5780632d10fa28146100aa578063ec756d2a146100c8578063fb218f5f146100f8575b600080fd5b610076600480360381019061007191906103d7565b610114565b6040516100839190610494565b60405180910390f35b6100946101c4565b6040516100a191906104c5565b60405180910390f35b6100b26101d0565b6040516100bf91906105ec565b60405180910390f35b6100e260048036038101906100dd91906103d7565b6102a9565b6040516100ef9190610494565b60405180910390f35b610112600480360381019061010d9190610743565b610355565b005b60606000828154811061012a5761012961078c565b5b90600052602060002001805461013f906107ea565b80601f016020809104026020016040519081016040528092919081815260200182805461016b906107ea565b80156101b85780601f1061018d576101008083540402835291602001916101b8565b820191906000526020600020905b81548152906001019060200180831161019b57829003601f168201915b50505050509050919050565b60008080549050905090565b60606000805480602002602001604051908101604052809291908181526020016000905b828210156102a0578382906000526020600020018054610213906107ea565b80601f016020809104026020016040519081016040528092919081815260200182805461023f906107ea565b801561028c5780601f106102615761010080835404028352916020019161028c565b820191906000526020600020905b81548152906001019060200180831161026f57829003601f168201915b5050505050815260200190600101906101f4565b50505050905090565b600081815481106102b957600080fd5b9060005260206000200160009150905080546102d4906107ea565b80601f0160208091040260200160405190810160405280929190818152602001828054610300906107ea565b801561034d5780601f106103225761010080835404028352916020019161034d565b820191906000526020600020905b81548152906001019060200180831161033057829003601f168201915b505050505081565b60008190806001815401808255809150506001900390600052602060002001600090919091909150908161038991906109c7565b5050565b6000604051905090565b600080fd5b600080fd5b6000819050919050565b6103b4816103a1565b81146103bf57600080fd5b50565b6000813590506103d1816103ab565b92915050565b6000602082840312156103ed576103ec610397565b5b60006103fb848285016103c2565b91505092915050565b600081519050919050565b600082825260208201905092915050565b60005b8381101561043e578082015181840152602081019050610423565b60008484015250505050565b6000601f19601f8301169050919050565b600061046682610404565b610470818561040f565b9350610480818560208601610420565b6104898161044a565b840191505092915050565b600060208201905081810360008301526104ae818461045b565b905092915050565b6104bf816103a1565b82525050565b60006020820190506104da60008301846104b6565b92915050565b600081519050919050565b600082825260208201905092915050565b6000819050602082019050919050565b600082825260208201905092915050565b600061052882610404565b610532818561050c565b9350610542818560208601610420565b61054b8161044a565b840191505092915050565b6000610562838361051d565b905092915050565b6000602082019050919050565b6000610582826104e0565b61058c81856104eb565b93508360208202850161059e856104fc565b8060005b858110156105da57848403895281516105bb8582610556565b94506105c68361056a565b925060208a019950506001810190506105a2565b50829750879550505050505092915050565b600060208201905081810360008301526106068184610577565b905092915050565b600080fd5b600080fd5b7f4e487b7100000000000000000000000000000000000000000000000000000000600052604160045260246000fd5b6106508261044a565b810181811067ffffffffffffffff8211171561066f5761066e610618565b5b80604052505050565b600061068261038d565b905061068e8282610647565b919050565b600067ffffffffffffffff8211156106ae576106ad610618565b5b6106b78261044a565b9050602081019050919050565b82818337600083830152505050565b60006106e66106e184610693565b610678565b90508281526020810184848401111561070257610701610613565b5b61070d8482856106c4565b509392505050565b600082601f83011261072a5761072961060e565b5b813561073a8482602086016106d3565b91505092915050565b60006020828403121561075957610758610397565b5b600082013567ffffffffffffffff8111156107775761077661039c565b5b61078384828501610715565b91505092915050565b7f4e487b7100000000000000000000000000000000000000000000000000000000600052603260045260246000fd5b7f4e487b7100000000000000000000000000000000000000000000000000000000600052602260045260246000fd5b6000600282049050600182168061080257607f821691505b602082108103610815576108146107bb565b5b50919050565b60008190508160005260206000209050919050565b60006020601f8301049050919050565b600082821b905092915050565b60006008830261087d7fffffffffffffffffffffffffffffffffffffffffffffffffffffffffffffffff82610840565b6108878683610840565b95508019841693508086168417925050509392505050565b6000819050919050565b60006108c46108bf6108ba846103a1565b61089f565b6103a1565b9050919050565b6000819050919050565b6108de836108a9565b6108f26108ea826108cb565b84845461084d565b825550505050565b600090565b6109076108fa565b6109128184846108d5565b505050565b5b818110156109365761092b6000826108ff565b600181019050610918565b5050565b601f82111561097b5761094c8161081b565b61095584610830565b81016020851015610964578190505b61097861097085610830565b830182610917565b50505b505050565b600082821c905092915050565b600061099e60001984600802610980565b1980831691505092915050565b60006109b7838361098d565b9150826002028217905092915050565b6109d082610404565b67ffffffffffffffff8111156109e9576109e8610618565b5b6109f382546107ea565b6109fe82828561093a565b600060209050601f831160018114610a315760008415610a1f578287015190505b610a2985826109ab565b865550610a91565b601f198416610a3f8661081b565b60005b82811015610a6757848901518255600182019150602085019450602081019050610a42565b86831015610a845784890151610a80601f89168261098d565b8355505b6001600288020188555050505b50505050505056fea2646970667358221220bd5eeda5a73a55a44daa8891c3af1961bf75206ff50e12ae721dbc1cba9ec75464736f6c63430008110033",
  "immutableReferences": {},
  "source": "// SPDX-License-Identifier: MIT\r\npragma solidity >=0.4.22 <0.9.0;\r\n\r\ncontract JsonArray{\r\n    string[] public jsonDataArray;\r\n\r\n    function storeData(string memory _jsonData) public {\r\n       jsonDataArray.push(_jsonData);\r\n    }\r\n\r\n    function getAllData() public view returns (string[] memory) {\r\n        return jsonDataArray;\r\n    }\r\n\r\n    function getData(uint256 index) public view returns (string memory) {\r\n        return jsonDataArray[index];\r\n    }\r\n\r\n    function getArrayLength() public view returns (uint256) {\r\n        return jsonDataArray.length;\r\n    }\r\n}\r\n",
  "sourcePath": "D:\\Software-Development\\blockchain\\contracts\\JsonArray.sol",
  "compiler": {
    "name": "solc",
    "version": "0.8.17+commit.8df45f5f.Emscripten.clang"
  },
  "schemaVersion": "3.4.11",
  "updatedAt": "2023-01-31T03:06:44.534Z",
  "networkType": "ethereum",
  "devdoc": {
    "kind": "dev",
    "methods": {},
    "version": 1
  },
  "userdoc": {
    "kind": "user",
    "methods": {},
    "version": 1
  }
}